{
  "contractName": "Vault",
  "abi": [
    {
      "inputs": [],
      "stateMutability": "nonpayable",
      "type": "constructor"
    },
    {
      "anonymous": false,
      "inputs": [
        {
          "indexed": true,
          "internalType": "address",
          "name": "destination",
          "type": "address"
        },
        {
          "indexed": false,
          "internalType": "uint256",
          "name": "amount",
          "type": "uint256"
        }
      ],
      "name": "CrossChainTransaction",
      "type": "event"
    },
    {
      "anonymous": false,
      "inputs": [
        {
          "indexed": true,
          "internalType": "address",
          "name": "user",
          "type": "address"
        },
        {
          "indexed": false,
          "internalType": "uint256",
          "name": "amount",
          "type": "uint256"
        }
      ],
      "name": "Deposited",
      "type": "event"
    },
    {
      "anonymous": false,
      "inputs": [
        {
          "indexed": true,
          "internalType": "address",
          "name": "user",
          "type": "address"
        },
        {
          "indexed": false,
          "internalType": "uint256",
          "name": "amount",
          "type": "uint256"
        }
      ],
      "name": "Withdrawn",
      "type": "event"
    },
    {
      "inputs": [
        {
          "internalType": "address",
          "name": "owner_",
          "type": "address"
        },
        {
          "internalType": "address",
          "name": "xcmContract_",
          "type": "address"
        }
      ],
      "name": "initialize",
      "outputs": [],
      "stateMutability": "nonpayable",
      "type": "function"
    },
    {
      "inputs": [
        {
          "internalType": "uint256",
          "name": "amount",
          "type": "uint256"
        }
      ],
      "name": "deposit",
      "outputs": [],
      "stateMutability": "nonpayable",
      "type": "function"
    },
    {
      "inputs": [
        {
          "internalType": "uint256",
          "name": "amount",
          "type": "uint256"
        }
      ],
      "name": "withdraw",
      "outputs": [],
      "stateMutability": "nonpayable",
      "type": "function"
    },
    {
      "inputs": [
        {
          "internalType": "address",
          "name": "destination",
          "type": "address"
        },
        {
          "internalType": "uint256",
          "name": "amount",
          "type": "uint256"
        }
      ],
      "name": "sendCrossChainMessage",
      "outputs": [],
      "stateMutability": "nonpayable",
      "type": "function"
    },
    {
      "inputs": [],
      "name": "getBalance",
      "outputs": [
        {
          "internalType": "uint256",
          "name": "",
          "type": "uint256"
        }
      ],
      "stateMutability": "view",
      "type": "function"
    },
    {
      "inputs": [],
      "name": "owner",
      "outputs": [
        {
          "internalType": "address",
          "name": "",
          "type": "address"
        }
      ],
      "stateMutability": "view",
      "type": "function"
    }
  ],
  "bytecode": "0x608060405234801561001057600080fd5b50610546806100206000396000f3fe608060405234801561001057600080fd5b50600436106100625760003560e01c806312065fe01461006757806325a24576146100855780632e1a7d4d1461009a578063485cc955146100ad5780638da5cb5b146100c0578063b6b55f25146100d5575b600080fd5b61006f6100e8565b60405161007c91906104c2565b60405180910390f35b61009861009336600461036f565b6100ee565b005b6100986100a8366004610398565b6101ed565b6100986100bb36600461033d565b610262565b6100c86102ca565b60405161007c91906103cc565b6100986100e3366004610398565b6102d9565b60005490565b6001546001600160a01b031633146101215760405162461bcd60e51b815260040161011890610443565b60405180910390fd5b60008160405160200161013491906103b0565b60408051601f198184030181529082905260025463bb5ddb0f60e01b83529092506001600160a01b03169063bb5ddb0f9061017590869085906004016103e0565b600060405180830381600087803b15801561018f57600080fd5b505af11580156101a3573d6000803e3d6000fd5b50505050826001600160a01b03167f9c6a40825dd28029aad173d13706b6321a529bb33c963fcd555362406989e13e836040516101e091906104c2565b60405180910390a2505050565b60005481111561020f5760405162461bcd60e51b815260040161011890610467565b8060008082825461022091906104e3565b909155505060405133907f7084f5476618d8e60b11ef0d7d3f06914655adb8793e28ff7f018d4c76d505d5906102579084906104c2565b60405180910390a250565b600254600160a01b900460ff161561028c5760405162461bcd60e51b815260040161011890610495565b600180546001600160a01b03199081166001600160a01b039485161790915560028054600160a01b9216929093169190911760ff60a01b1916179055565b6001546001600160a01b031690565b806000808282546102ea91906104cb565b909155505060405133907f2da466a7b24304f47e87fa2e1e5a81b9831ce54fec19055ce277ca2f39ba42c4906102579084906104c2565b80356001600160a01b038116811461033857600080fd5b919050565b6000806040838503121561034f578182fd5b61035883610321565b915061036660208401610321565b90509250929050565b60008060408385031215610381578182fd5b61038a83610321565b946020939093013593505050565b6000602082840312156103a9578081fd5b5035919050565b672a3930b739b332b960c11b8152600881019190915260280190565b6001600160a01b0391909116815260200190565b600060018060a01b038416825260206040818401528351806040850152825b8181101561041b578581018301518582016060015282016103ff565b8181111561042c5783606083870101525b50601f01601f191692909201606001949350505050565b6020808252600a908201526927b7363c9037bbb732b960b11b604082015260600190565b602080825260149082015273496e73756666696369656e742062616c616e636560601b604082015260600190565b602080825260139082015272105b1c9958591e481a5b9a5d1a585b1a5e9959606a1b604082015260600190565b90815260200190565b600082198211156104de576104de6104fa565b500190565b6000828210156104f5576104f56104fa565b500390565b634e487b7160e01b600052601160045260246000fdfea2646970667358221220ba4b48bfbff3ed456296a4cfab0ce419275c2c01b189ecb55da0e69d0b22a95764736f6c63430008000033",
  "immutableReferences": {},
  "source": "// SPDX-License-Identifier: MIT\npragma solidity ^0.8.0;\n\ninterface IXcmInterface {\n    function sendMessage(address destination, bytes calldata message) external;\n}\n\ncontract Vault {\n    uint256 private _balance;\n    address private _owner;\n    IXcmInterface private _xcmContract;\n    bool private _isInitialized;\n\n    event Deposited(address indexed user, uint256 amount);\n    event Withdrawn(address indexed user, uint256 amount);\n    event CrossChainTransaction(address indexed destination, uint256 amount);\n\n    constructor() {}\n\n    function initialize(address owner_, address xcmContract_) external {\n        require(!_isInitialized, \"Already initialized\");\n        _owner = owner_;\n        _xcmContract = IXcmInterface(xcmContract_);\n        _isInitialized = true;\n    }\n\n    function deposit(uint256 amount) external {\n        _balance += amount;\n        emit Deposited(msg.sender, amount);\n    }\n\n    function withdraw(uint256 amount) external {\n        require(amount <= _balance, \"Insufficient balance\");\n        _balance -= amount;\n        emit Withdrawn(msg.sender, amount);\n    }\n\n    function sendCrossChainMessage(address destination, uint256 amount) external {\n        require(msg.sender == _owner, \"Only owner\");\n        bytes memory message = abi.encodePacked(\"Transfer\", amount);\n        _xcmContract.sendMessage(destination, message);\n        emit CrossChainTransaction(destination, amount);\n    }\n\n    function getBalance() external view returns (uint256) {\n        return _balance;\n    }\n\n    function owner() external view returns (address) {\n        return _owner;\n    }\n}\n",
  "sourcePath": "/Users/mdabdurrazzak/polkadot-sdk/new-polkadot-sdk/vault_contract/contracts/Vault.sol",
  "compiler": {
    "name": "solc",
    "version": "0.8.0+commit.c7dfd78e.Emscripten.clang"
  },
  "schemaVersion": "3.4.16",
  "updatedAt": "2025-04-20T02:05:32.733Z",
  "devdoc": {
    "kind": "dev",
    "methods": {},
    "version": 1
  },
  "userdoc": {
    "kind": "user",
    "methods": {},
    "version": 1
  }
}